{
  "address": "0x44fDa16C24b23C40eBD572D8A98f7a0d6449f448",
  "abi": [
    {
      "inputs": [],
      "stateMutability": "nonpayable",
      "type": "constructor"
    },
    {
      "anonymous": false,
      "inputs": [
        {
          "indexed": true,
          "internalType": "address",
          "name": "nft",
          "type": "address"
        },
        {
          "indexed": false,
          "internalType": "uint256",
          "name": "nftCount",
          "type": "uint256"
        }
      ],
      "name": "NFTDeployed",
      "type": "event"
    },
    {
      "anonymous": false,
      "inputs": [
        {
          "indexed": true,
          "internalType": "address",
          "name": "previousOwner",
          "type": "address"
        },
        {
          "indexed": true,
          "internalType": "address",
          "name": "newOwner",
          "type": "address"
        }
      ],
      "name": "OwnershipTransferred",
      "type": "event"
    },
    {
      "inputs": [
        {
          "internalType": "string",
          "name": "name",
          "type": "string"
        },
        {
          "internalType": "string",
          "name": "symbol",
          "type": "string"
        },
        {
          "internalType": "string",
          "name": "baseURI",
          "type": "string"
        },
        {
          "internalType": "address",
          "name": "admin",
          "type": "address"
        },
        {
          "internalType": "address",
          "name": "saleFeeRecipient",
          "type": "address"
        },
        {
          "internalType": "uint256",
          "name": "maxTokenAmount",
          "type": "uint256"
        },
        {
          "internalType": "uint256",
          "name": "salesFeeBPS",
          "type": "uint256"
        }
      ],
      "name": "deployNFT",
      "outputs": [
        {
          "internalType": "address",
          "name": "nft",
          "type": "address"
        }
      ],
      "stateMutability": "nonpayable",
      "type": "function"
    },
    {
      "inputs": [
        {
          "internalType": "uint256",
          "name": "",
          "type": "uint256"
        }
      ],
      "name": "nfts",
      "outputs": [
        {
          "internalType": "address",
          "name": "",
          "type": "address"
        }
      ],
      "stateMutability": "view",
      "type": "function"
    },
    {
      "inputs": [],
      "name": "owner",
      "outputs": [
        {
          "internalType": "address",
          "name": "",
          "type": "address"
        }
      ],
      "stateMutability": "view",
      "type": "function"
    },
    {
      "inputs": [],
      "name": "renounceOwnership",
      "outputs": [],
      "stateMutability": "nonpayable",
      "type": "function"
    },
    {
      "inputs": [
        {
          "internalType": "address",
          "name": "newOwner",
          "type": "address"
        }
      ],
      "name": "transferOwnership",
      "outputs": [],
      "stateMutability": "nonpayable",
      "type": "function"
    }
  ],
  "transactionHash": "0xed3d0a71e14a8ed5e21380c4f572d77f6b60f859872bd3be9ff4c5949942db18",
  "args": [],
  "solcInputHash": "6e6709f238412a2f32281114d6d96063",
  "bytecode": "0x608060405234801561001057600080fd5b5061001a3361001f565b61006f565b600080546001600160a01b038381166001600160a01b0319831681178455604051919092169283917f8be0079c531659141344cd1fd0a4f28419497f9722a3daafe3b4186f6b6457e09190a35050565b61258b8061007e6000396000f3fe60806040523480156200001157600080fd5b50600436106200005e5760003560e01c8063265aa6211462000063578063401f48721462000096578063715018a614620000ad5780638da5cb5b14620000b9578063f2fde38b14620000cb575b600080fd5b6200007a62000074366004620004eb565b620000e2565b6040516001600160a01b03909116815260200160405180910390f35b6200007a620000a736600462000424565b6200010d565b620000b762000219565b005b6000546001600160a01b03166200007a565b620000b7620000dc36600462000400565b62000254565b60018181548110620000f357600080fd5b6000918252602090912001546001600160a01b0316905081565b600080546001600160a01b03163314620001445760405162461bcd60e51b81526004016200013b90620005c1565b60405180910390fd5b87878787878787604051620001599062000346565b6200016b979695949392919062000552565b604051809103906000f08015801562000188573d6000803e3d6000fd5b5060018054808201825560008290527fb10e2d527612073b26eecdfd717e6a320cf44b4afac2b0732d9fcbe2b7fa0cf60180546001600160a01b0319166001600160a01b0384169081179091559054604051908152919250907f941fc44af763baa5830fcfc2e9cfa66d9af75d0240b66c8fdccaf3b3d1c032779060200160405180910390a2979650505050505050565b6000546001600160a01b03163314620002465760405162461bcd60e51b81526004016200013b90620005c1565b620002526000620002f6565b565b6000546001600160a01b03163314620002815760405162461bcd60e51b81526004016200013b90620005c1565b6001600160a01b038116620002e85760405162461bcd60e51b815260206004820152602660248201527f4f776e61626c653a206e6577206f776e657220697320746865207a65726f206160448201526564647265737360d01b60648201526084016200013b565b620002f381620002f6565b50565b600080546001600160a01b038381166001600160a01b0319831681178455604051919092169283917f8be0079c531659141344cd1fd0a4f28419497f9722a3daafe3b4186f6b6457e09190a35050565b611f49806200060d83390190565b80356001600160a01b03811681146200036c57600080fd5b919050565b600082601f83011262000382578081fd5b813567ffffffffffffffff80821115620003a057620003a0620005f6565b604051601f8301601f19908116603f01168101908282118183101715620003cb57620003cb620005f6565b81604052838152866020858801011115620003e4578485fd5b8360208701602083013792830160200193909352509392505050565b60006020828403121562000412578081fd5b6200041d8262000354565b9392505050565b600080600080600080600060e0888a0312156200043f578283fd5b873567ffffffffffffffff8082111562000457578485fd5b620004658b838c0162000371565b985060208a01359150808211156200047b578485fd5b620004898b838c0162000371565b975060408a01359150808211156200049f578485fd5b50620004ae8a828b0162000371565b955050620004bf6060890162000354565b9350620004cf6080890162000354565b925060a0880135915060c0880135905092959891949750929550565b600060208284031215620004fd578081fd5b5035919050565b60008151808452815b818110156200052b576020818501810151868301820152016200050d565b818111156200053d5782602083870101525b50601f01601f19169290920160200192915050565b600060e082526200056760e083018a62000504565b82810360208401526200057b818a62000504565b9050828103604084015262000591818962000504565b6001600160a01b0397881660608501529590961660808301525060a081019290925260c090910152949350505050565b6020808252818101527f4f776e61626c653a2063616c6c6572206973206e6f7420746865206f776e6572604082015260600190565b634e487b7160e01b600052604160045260246000fdfe60806040523480156200001157600080fd5b5060405162001f4938038062001f498339810160408190526200003491620004a2565b86866200004a62000044620000e6565b62000103565b6200005c632dde656160e21b62000153565b8151620000719060029060208501906200032c565b508051620000879060039060208401906200032c565b5050506200009b84620001db60201b60201c565b8451620000b09060099060208801906200032c565b50600a80546001600160a01b0319166001600160a01b039490941693909317909255600b91909155600c5550620005bb92505050565b6000620000fd620002ce60201b62000d281760201c565b90505b90565b600080546001600160a01b038381166001600160a01b0319831681178455604051919092169283917f8be0079c531659141344cd1fd0a4f28419497f9722a3daafe3b4186f6b6457e09190a35050565b6001600160e01b03198082161415620001b35760405162461bcd60e51b815260206004820152601c60248201527f4552433136353a20696e76616c696420696e746572666163652069640000000060448201526064015b60405180910390fd5b6001600160e01b0319166000908152600160208190526040909120805460ff19169091179055565b620001e5620000e6565b6001600160a01b0316620002016000546001600160a01b031690565b6001600160a01b031614620002595760405162461bcd60e51b815260206004820181905260248201527f4f776e61626c653a2063616c6c6572206973206e6f7420746865206f776e65726044820152606401620001aa565b6001600160a01b038116620002c05760405162461bcd60e51b815260206004820152602660248201527f4f776e61626c653a206e6577206f776e657220697320746865207a65726f206160448201526564647265737360d01b6064820152608401620001aa565b620002cb8162000103565b50565b6000333014156200032757600080368080601f0160208091040260200160405190810160405280939291908181526020018383808284376000920191909152505050503601516001600160a01b03169150620001009050565b503390565b8280546200033a9062000568565b90600052602060002090601f0160209004810192826200035e5760008555620003a9565b82601f106200037957805160ff1916838001178555620003a9565b82800160010185558215620003a9579182015b82811115620003a95782518255916020019190600101906200038c565b50620003b7929150620003bb565b5090565b5b80821115620003b75760008155600101620003bc565b80516001600160a01b0381168114620003ea57600080fd5b919050565b600082601f83011262000400578081fd5b81516001600160401b03808211156200041d576200041d620005a5565b604051601f8301601f19908116603f01168101908282118183101715620004485762000448620005a5565b8160405283815260209250868385880101111562000464578485fd5b8491505b8382101562000487578582018301518183018401529082019062000468565b838211156200049857848385830101525b9695505050505050565b600080600080600080600060e0888a031215620004bd578283fd5b87516001600160401b0380821115620004d4578485fd5b620004e28b838c01620003ef565b985060208a0151915080821115620004f8578485fd5b620005068b838c01620003ef565b975060408a01519150808211156200051c578485fd5b506200052b8a828b01620003ef565b9550506200053c60608901620003d2565b93506200054c60808901620003d2565b925060a0880151915060c0880151905092959891949750929550565b600181811c908216806200057d57607f821691505b602082108114156200059f57634e487b7160e01b600052602260045260246000fd5b50919050565b634e487b7160e01b600052604160045260246000fd5b61197e80620005cb6000396000f3fe608060405234801561001057600080fd5b50600436106101735760003560e01c80636c0360eb116100de578063b083120011610097578063c87b56dd11610071578063c87b56dd14610329578063e74b981b1461033c578063e985e9c51461034f578063f2fde38b1461036257610173565b8063b0831200146102ed578063b88d4fde146102f6578063b9c4d9fb1461030957610173565b80636c0360eb1461029e57806370a08231146102a6578063715018a6146102b95780638da5cb5b146102c157806395d89b41146102d2578063a22cb465146102da57610173565b806323b872dd1161013057806323b872dd1461022c5780632ee926751461023f57806342842e0e146102525780634de9fb93146102655780636352211e146102785780636a6278421461028b57610173565b806301ffc9a71461017857806306fdde03146101a0578063081812fc146101b5578063095ea7b3146101e05780630ebd4c7f146101f557806317d54cb014610215575b600080fd5b61018b6101863660046115a3565b610375565b60405190151581526020015b60405180910390f35b6101a8610388565b60405161019791906117b1565b6101c86101c33660046115e2565b61041b565b6040516001600160a01b039091168152602001610197565b6101f36101ee36600461157a565b6104b5565b005b6102086102033660046115e2565b6105dd565b6040516101979190611779565b61021e600b5481565b604051908152602001610197565b6101f361023a366004611430565b610638565b6101f361024d3660046115e2565b610670565b6101f3610260366004611430565b6106cd565b600a546101c8906001600160a01b031681565b6101c86102863660046115e2565b6106e8565b61021e6102993660046113e4565b61075f565b6101a8610818565b61021e6102b43660046113e4565b6108a6565b6101f361092d565b6000546001600160a01b03166101c8565b6101a8610982565b6101f36102e8366004611540565b610991565b61021e61271081565b6101f361030436600461146b565b610a93565b61031c6103173660046115e2565b610ad2565b604051610197919061172c565b6101a86103373660046115e2565b610b45565b6101f361034a3660046113e4565b610b6f565b61018b61035d3660046113fe565b610c0c565b6101f36103703660046113e4565b610c6e565b600061038082610d84565b90505b919050565b606060028054610397906118cb565b80601f01602080910402602001604051908101604052809291908181526020018280546103c3906118cb565b80156104105780601f106103e557610100808354040283529160200191610410565b820191906000526020600020905b8154815290600101906020018083116103f357829003601f168201915b505050505090505b90565b6000818152600460205260408120546001600160a01b03166104995760405162461bcd60e51b815260206004820152602c60248201527f4552433732313a20617070726f76656420717565727920666f72206e6f6e657860448201526b34b9ba32b73a103a37b5b2b760a11b60648201526084015b60405180910390fd5b506000908152600660205260409020546001600160a01b031690565b60006104c0826106e8565b9050806001600160a01b0316836001600160a01b0316141561052e5760405162461bcd60e51b815260206004820152602160248201527f4552433732313a20617070726f76616c20746f2063757272656e74206f776e656044820152603960f91b6064820152608401610490565b806001600160a01b0316610540610dc4565b6001600160a01b0316148061055c575061055c8161035d610dc4565b6105ce5760405162461bcd60e51b815260206004820152603860248201527f4552433732313a20617070726f76652063616c6c6572206973206e6f74206f7760448201527f6e6572206e6f7220617070726f76656420666f7220616c6c00000000000000006064820152608401610490565b6105d88383610dd3565b505050565b6040805160018082528183019092526060916000919060208083019080368337019050509050600b548160008151811061062757634e487b7160e01b600052603260045260246000fd5b602090810291909101015292915050565b610649610643610dc4565b82610e41565b6106655760405162461bcd60e51b81526004016104909061184b565b6105d8838383610f18565b610678610dc4565b6001600160a01b03166106936000546001600160a01b031690565b6001600160a01b0316146106b95760405162461bcd60e51b815260040161049090611816565b6127108111156106c857600080fd5b600b55565b6105d883838360405180602001604052806000815250610a93565b6000818152600460205260408120546001600160a01b0316806103805760405162461bcd60e51b815260206004820152602960248201527f4552433732313a206f776e657220717565727920666f72206e6f6e657869737460448201526832b73a103a37b5b2b760b91b6064820152608401610490565b6000610769610dc4565b6001600160a01b03166107846000546001600160a01b031690565b6001600160a01b0316146107aa5760405162461bcd60e51b815260040161049090611816565b600c54600854106107f35760405162461bcd60e51b815260206004820152601360248201527213585e08139bcb8813919514c81b5a5b9d1959606a1b6044820152606401610490565b610801600880546001019055565b600061080c60085490565b905061038083826110b8565b60098054610825906118cb565b80601f0160208091040260200160405190810160405280929190818152602001828054610851906118cb565b801561089e5780601f106108735761010080835404028352916020019161089e565b820191906000526020600020905b81548152906001019060200180831161088157829003601f168201915b505050505081565b60006001600160a01b0382166109115760405162461bcd60e51b815260206004820152602a60248201527f4552433732313a2062616c616e636520717565727920666f7220746865207a65604482015269726f206164647265737360b01b6064820152608401610490565b506001600160a01b031660009081526005602052604090205490565b610935610dc4565b6001600160a01b03166109506000546001600160a01b031690565b6001600160a01b0316146109765760405162461bcd60e51b815260040161049090611816565b61098060006111fa565b565b606060038054610397906118cb565b610999610dc4565b6001600160a01b0316826001600160a01b031614156109fa5760405162461bcd60e51b815260206004820152601960248201527f4552433732313a20617070726f766520746f2063616c6c6572000000000000006044820152606401610490565b8060076000610a07610dc4565b6001600160a01b03908116825260208083019390935260409182016000908120918716808252919093529120805460ff191692151592909217909155610a4b610dc4565b6001600160a01b03167f17307eab39ab6107e8899845ad3d59bd9653f200f220920489ca2b5937696c3183604051610a87911515815260200190565b60405180910390a35050565b610aa4610a9e610dc4565b83610e41565b610ac05760405162461bcd60e51b81526004016104909061184b565b610acc8484848461124a565b50505050565b60408051600180825281830190925260609160009190602080830190803683375050600a5482519293506001600160a01b031691839150600090610b2657634e487b7160e01b600052603260045260246000fd5b6001600160a01b03909216602092830291909101909101529050919050565b60606009604051602001610b599190611645565b6040516020818303038152906040529050919050565b610b77610dc4565b6001600160a01b0316610b926000546001600160a01b031690565b6001600160a01b031614610bb85760405162461bcd60e51b815260040161049090611816565b600a80546001600160a01b0319166001600160a01b0383169081179091556040519081527f01e687e26c4cfc5bd8d8e5b4fd39d3dc526d2a95e5d2225252fe498e172257239060200160405180910390a150565b60006001600160a01b0382167358807bad0b376efc12f5ad86aac70e78ed67deae1415610c3b57506001610c68565b6001600160a01b0380841660009081526007602090815260408083209386168352929052205460ff165b90505b92915050565b610c76610dc4565b6001600160a01b0316610c916000546001600160a01b031690565b6001600160a01b031614610cb75760405162461bcd60e51b815260040161049090611816565b6001600160a01b038116610d1c5760405162461bcd60e51b815260206004820152602660248201527f4f776e61626c653a206e6577206f776e657220697320746865207a65726f206160448201526564647265737360d01b6064820152608401610490565b610d25816111fa565b50565b600033301415610d7f57600080368080601f0160208091040260200160405190810160405280939291908181526020018383808284376000920191909152505050503601516001600160a01b031691506104189050565b503390565b60006001600160e01b031982166380ac58cd60e01b1480610db557506001600160e01b03198216635b5e139f60e01b145b8061038057506103808261127d565b6000610dce610d28565b905090565b600081815260066020526040902080546001600160a01b0319166001600160a01b0384169081179091558190610e08826106e8565b6001600160a01b03167f8c5be1e5ebec7d5bd14f71427d1e84f3dd0314c0f7b2291e5b200ac8c7c3b92560405160405180910390a45050565b6000818152600460205260408120546001600160a01b0316610eba5760405162461bcd60e51b815260206004820152602c60248201527f4552433732313a206f70657261746f7220717565727920666f72206e6f6e657860448201526b34b9ba32b73a103a37b5b2b760a11b6064820152608401610490565b6000610ec5836106e8565b9050806001600160a01b0316846001600160a01b03161480610f005750836001600160a01b0316610ef58461041b565b6001600160a01b0316145b80610f105750610f108185610c0c565b949350505050565b826001600160a01b0316610f2b826106e8565b6001600160a01b031614610f935760405162461bcd60e51b815260206004820152602960248201527f4552433732313a207472616e73666572206f6620746f6b656e2074686174206960448201526839903737ba1037bbb760b91b6064820152608401610490565b6001600160a01b038216610ff55760405162461bcd60e51b8152602060048201526024808201527f4552433732313a207472616e7366657220746f20746865207a65726f206164646044820152637265737360e01b6064820152608401610490565b611000600082610dd3565b6001600160a01b03831660009081526005602052604081208054600192906110299084906118b4565b90915550506001600160a01b038216600090815260056020526040812080546001929061105790849061189c565b909155505060008181526004602052604080822080546001600160a01b0319166001600160a01b0386811691821790925591518493918716917fddf252ad1be2c89b69c2b068fc378daa952ba7f163c4a11628f55a4df523b3ef91a4505050565b6001600160a01b03821661110e5760405162461bcd60e51b815260206004820181905260248201527f4552433732313a206d696e7420746f20746865207a65726f20616464726573736044820152606401610490565b6000818152600460205260409020546001600160a01b0316156111735760405162461bcd60e51b815260206004820152601c60248201527f4552433732313a20746f6b656e20616c7265616479206d696e746564000000006044820152606401610490565b6001600160a01b038216600090815260056020526040812080546001929061119c90849061189c565b909155505060008181526004602052604080822080546001600160a01b0319166001600160a01b03861690811790915590518392907fddf252ad1be2c89b69c2b068fc378daa952ba7f163c4a11628f55a4df523b3ef908290a45050565b600080546001600160a01b038381166001600160a01b0319831681178455604051919092169283917f8be0079c531659141344cd1fd0a4f28419497f9722a3daafe3b4186f6b6457e09190a35050565b611255848484610f18565b611261848484846112b9565b610acc5760405162461bcd60e51b8152600401610490906117c4565b60006301ffc9a760e01b6001600160e01b0319831614806103805750506001600160e01b03191660009081526001602052604090205460ff1690565b60006001600160a01b0384163b156113c257836001600160a01b031663150b7a026112e2610dc4565b8786866040518563ffffffff1660e01b815260040161130494939291906116ef565b602060405180830381600087803b15801561131e57600080fd5b505af192505050801561134e575060408051601f3d908101601f1916820190925261134b918101906115c6565b60015b6113a8573d80801561137c576040519150601f19603f3d011682016040523d82523d6000602084013e611381565b606091505b5080516113a05760405162461bcd60e51b8152600401610490906117c4565b805181602001fd5b6001600160e01b031916630a85bd0160e11b149050610f10565b506001949350505050565b80356001600160a01b038116811461038357600080fd5b6000602082840312156113f5578081fd5b610c65826113cd565b60008060408385031215611410578081fd5b611419836113cd565b9150611427602084016113cd565b90509250929050565b600080600060608486031215611444578081fd5b61144d846113cd565b925061145b602085016113cd565b9150604084013590509250925092565b60008060008060808587031215611480578081fd5b611489856113cd565b9350611497602086016113cd565b925060408501359150606085013567ffffffffffffffff808211156114ba578283fd5b818701915087601f8301126114cd578283fd5b8135818111156114df576114df61191c565b604051601f8201601f19908116603f011681019083821181831017156115075761150761191c565b816040528281528a602084870101111561151f578586fd5b82602086016020830137918201602001949094529598949750929550505050565b60008060408385031215611552578182fd5b61155b836113cd565b91506020830135801515811461156f578182fd5b809150509250929050565b6000806040838503121561158c578182fd5b611595836113cd565b946020939093013593505050565b6000602082840312156115b4578081fd5b81356115bf81611932565b9392505050565b6000602082840312156115d7578081fd5b81516115bf81611932565b6000602082840312156115f3578081fd5b5035919050565b60008151808452815b8181101561161f57602081850181015186830182015201611603565b818111156116305782602083870101525b50601f01601f19169290920160200192915050565b600080835482600182811c91508083168061166157607f831692505b602080841082141561168157634e487b7160e01b87526022600452602487fd5b81801561169557600181146116a6576116d2565b60ff198616895284890196506116d2565b60008a815260209020885b868110156116ca5781548b8201529085019083016116b1565b505084890196505b505050505050610f1081666170652d6f686d60c81b815260070190565b6001600160a01b0385811682528416602082015260408101839052608060608201819052600090611722908301846115fa565b9695505050505050565b6020808252825182820181905260009190848201906040850190845b8181101561176d5783516001600160a01b031683529284019291840191600101611748565b50909695505050505050565b6020808252825182820181905260009190848201906040850190845b8181101561176d57835183529284019291840191600101611795565b600060208252610c6560208301846115fa565b60208082526032908201527f4552433732313a207472616e7366657220746f206e6f6e20455243373231526560408201527131b2b4bb32b91034b6b83632b6b2b73a32b960711b606082015260800190565b6020808252818101527f4f776e61626c653a2063616c6c6572206973206e6f7420746865206f776e6572604082015260600190565b60208082526031908201527f4552433732313a207472616e736665722063616c6c6572206973206e6f74206f6040820152701ddb995c881b9bdc88185c1c1c9bdd9959607a1b606082015260800190565b600082198211156118af576118af611906565b500190565b6000828210156118c6576118c6611906565b500390565b600181811c908216806118df57607f821691505b6020821081141561190057634e487b7160e01b600052602260045260246000fd5b50919050565b634e487b7160e01b600052601160045260246000fd5b634e487b7160e01b600052604160045260246000fd5b6001600160e01b031981168114610d2557600080fdfea26469706673582212204e5215ed41f243966cfb2a71b636b91547826388343bbeb283823838a0d547b664736f6c63430008030033a264697066735822122009445d8dc6507771e9a0c4a52d876a301fec581364bb04858f9a54c7638341b164736f6c63430008030033",
  "devdoc": {
    "kind": "dev",
    "methods": {
      "owner()": {
        "details": "Returns the address of the current owner."
      },
      "renounceOwnership()": {
        "details": "Leaves the contract without owner. It will not be possible to call `onlyOwner` functions anymore. Can only be called by the current owner. NOTE: Renouncing ownership will leave the contract without an owner, thereby removing any functionality that is only available to the owner."
      },
      "transferOwnership(address)": {
        "details": "Transfers ownership of the contract to a new account (`newOwner`). Can only be called by the current owner."
      }
    },
    "version": 1
  },
  "userdoc": {
    "kind": "user",
    "methods": {},
    "version": 1
  },
  "storageLayout": {
    "storage": [
      {
        "astId": 7,
        "contract": "contracts/NFTFactory.sol:NFTFactory",
        "label": "_owner",
        "offset": 0,
        "slot": "0",
        "type": "t_address"
      },
      {
        "astId": 2110,
        "contract": "contracts/NFTFactory.sol:NFTFactory",
        "label": "nfts",
        "offset": 0,
        "slot": "1",
        "type": "t_array(t_address)dyn_storage"
      }
    ],
    "types": {
      "t_address": {
        "encoding": "inplace",
        "label": "address",
        "numberOfBytes": "20"
      },
      "t_array(t_address)dyn_storage": {
        "base": "t_address",
        "encoding": "dynamic_array",
        "label": "address[]",
        "numberOfBytes": "32"
      }
    }
  }
}